{
  "contractName": "LipToken",
  "abi": [
    {
      "inputs": [
        {
          "internalType": "string",
          "name": "_name",
          "type": "string"
        },
        {
          "internalType": "string",
          "name": "_symbol",
          "type": "string"
        }
      ],
      "stateMutability": "nonpayable",
      "type": "constructor"
    },
    {
      "anonymous": false,
      "inputs": [
        {
          "indexed": true,
          "internalType": "address",
          "name": "owner",
          "type": "address"
        },
        {
          "indexed": true,
          "internalType": "address",
          "name": "approved",
          "type": "address"
        },
        {
          "indexed": true,
          "internalType": "uint256",
          "name": "tokenId",
          "type": "uint256"
        }
      ],
      "name": "Approval",
      "type": "event"
    },
    {
      "anonymous": false,
      "inputs": [
        {
          "indexed": true,
          "internalType": "address",
          "name": "owner",
          "type": "address"
        },
        {
          "indexed": true,
          "internalType": "address",
          "name": "operator",
          "type": "address"
        },
        {
          "indexed": false,
          "internalType": "bool",
          "name": "approved",
          "type": "bool"
        }
      ],
      "name": "ApprovalForAll",
      "type": "event"
    },
    {
      "anonymous": false,
      "inputs": [
        {
          "indexed": true,
          "internalType": "address",
          "name": "owner",
          "type": "address"
        },
        {
          "indexed": false,
          "internalType": "uint256",
          "name": "id",
          "type": "uint256"
        },
        {
          "indexed": false,
          "internalType": "uint256",
          "name": "dna",
          "type": "uint256"
        }
      ],
      "name": "NewLip",
      "type": "event"
    },
    {
      "anonymous": false,
      "inputs": [
        {
          "indexed": true,
          "internalType": "address",
          "name": "previousOwner",
          "type": "address"
        },
        {
          "indexed": true,
          "internalType": "address",
          "name": "newOwner",
          "type": "address"
        }
      ],
      "name": "OwnershipTransferred",
      "type": "event"
    },
    {
      "anonymous": false,
      "inputs": [
        {
          "indexed": true,
          "internalType": "address",
          "name": "from",
          "type": "address"
        },
        {
          "indexed": true,
          "internalType": "address",
          "name": "to",
          "type": "address"
        },
        {
          "indexed": true,
          "internalType": "uint256",
          "name": "tokenId",
          "type": "uint256"
        }
      ],
      "name": "Transfer",
      "type": "event"
    },
    {
      "inputs": [
        {
          "internalType": "address",
          "name": "to",
          "type": "address"
        },
        {
          "internalType": "uint256",
          "name": "tokenId",
          "type": "uint256"
        }
      ],
      "name": "approve",
      "outputs": [],
      "stateMutability": "nonpayable",
      "type": "function"
    },
    {
      "inputs": [
        {
          "internalType": "address",
          "name": "owner",
          "type": "address"
        }
      ],
      "name": "balanceOf",
      "outputs": [
        {
          "internalType": "uint256",
          "name": "",
          "type": "uint256"
        }
      ],
      "stateMutability": "view",
      "type": "function",
      "constant": true
    },
    {
      "inputs": [
        {
          "internalType": "uint256",
          "name": "tokenId",
          "type": "uint256"
        }
      ],
      "name": "getApproved",
      "outputs": [
        {
          "internalType": "address",
          "name": "",
          "type": "address"
        }
      ],
      "stateMutability": "view",
      "type": "function",
      "constant": true
    },
    {
      "inputs": [
        {
          "internalType": "address",
          "name": "owner",
          "type": "address"
        },
        {
          "internalType": "address",
          "name": "operator",
          "type": "address"
        }
      ],
      "name": "isApprovedForAll",
      "outputs": [
        {
          "internalType": "bool",
          "name": "",
          "type": "bool"
        }
      ],
      "stateMutability": "view",
      "type": "function",
      "constant": true
    },
    {
      "inputs": [
        {
          "internalType": "uint256",
          "name": "",
          "type": "uint256"
        }
      ],
      "name": "lips",
      "outputs": [
        {
          "internalType": "string",
          "name": "name",
          "type": "string"
        },
        {
          "internalType": "uint256",
          "name": "id",
          "type": "uint256"
        },
        {
          "internalType": "uint256",
          "name": "dna",
          "type": "uint256"
        },
        {
          "internalType": "uint8",
          "name": "level",
          "type": "uint8"
        },
        {
          "internalType": "uint8",
          "name": "rarity",
          "type": "uint8"
        }
      ],
      "stateMutability": "view",
      "type": "function",
      "constant": true
    },
    {
      "inputs": [],
      "name": "name",
      "outputs": [
        {
          "internalType": "string",
          "name": "",
          "type": "string"
        }
      ],
      "stateMutability": "view",
      "type": "function",
      "constant": true
    },
    {
      "inputs": [],
      "name": "owner",
      "outputs": [
        {
          "internalType": "address",
          "name": "",
          "type": "address"
        }
      ],
      "stateMutability": "view",
      "type": "function",
      "constant": true
    },
    {
      "inputs": [
        {
          "internalType": "uint256",
          "name": "tokenId",
          "type": "uint256"
        }
      ],
      "name": "ownerOf",
      "outputs": [
        {
          "internalType": "address",
          "name": "",
          "type": "address"
        }
      ],
      "stateMutability": "view",
      "type": "function",
      "constant": true
    },
    {
      "inputs": [],
      "name": "renounceOwnership",
      "outputs": [],
      "stateMutability": "nonpayable",
      "type": "function"
    },
    {
      "inputs": [
        {
          "internalType": "address",
          "name": "from",
          "type": "address"
        },
        {
          "internalType": "address",
          "name": "to",
          "type": "address"
        },
        {
          "internalType": "uint256",
          "name": "tokenId",
          "type": "uint256"
        }
      ],
      "name": "safeTransferFrom",
      "outputs": [],
      "stateMutability": "nonpayable",
      "type": "function"
    },
    {
      "inputs": [
        {
          "internalType": "address",
          "name": "from",
          "type": "address"
        },
        {
          "internalType": "address",
          "name": "to",
          "type": "address"
        },
        {
          "internalType": "uint256",
          "name": "tokenId",
          "type": "uint256"
        },
        {
          "internalType": "bytes",
          "name": "_data",
          "type": "bytes"
        }
      ],
      "name": "safeTransferFrom",
      "outputs": [],
      "stateMutability": "nonpayable",
      "type": "function"
    },
    {
      "inputs": [
        {
          "internalType": "address",
          "name": "operator",
          "type": "address"
        },
        {
          "internalType": "bool",
          "name": "approved",
          "type": "bool"
        }
      ],
      "name": "setApprovalForAll",
      "outputs": [],
      "stateMutability": "nonpayable",
      "type": "function"
    },
    {
      "inputs": [
        {
          "internalType": "bytes4",
          "name": "interfaceId",
          "type": "bytes4"
        }
      ],
      "name": "supportsInterface",
      "outputs": [
        {
          "internalType": "bool",
          "name": "",
          "type": "bool"
        }
      ],
      "stateMutability": "view",
      "type": "function",
      "constant": true
    },
    {
      "inputs": [],
      "name": "symbol",
      "outputs": [
        {
          "internalType": "string",
          "name": "",
          "type": "string"
        }
      ],
      "stateMutability": "view",
      "type": "function",
      "constant": true
    },
    {
      "inputs": [
        {
          "internalType": "uint256",
          "name": "tokenId",
          "type": "uint256"
        }
      ],
      "name": "tokenURI",
      "outputs": [
        {
          "internalType": "string",
          "name": "",
          "type": "string"
        }
      ],
      "stateMutability": "view",
      "type": "function",
      "constant": true
    },
    {
      "inputs": [
        {
          "internalType": "address",
          "name": "from",
          "type": "address"
        },
        {
          "internalType": "address",
          "name": "to",
          "type": "address"
        },
        {
          "internalType": "uint256",
          "name": "tokenId",
          "type": "uint256"
        }
      ],
      "name": "transferFrom",
      "outputs": [],
      "stateMutability": "nonpayable",
      "type": "function"
    },
    {
      "inputs": [
        {
          "internalType": "address",
          "name": "newOwner",
          "type": "address"
        }
      ],
      "name": "transferOwnership",
      "outputs": [],
      "stateMutability": "nonpayable",
      "type": "function"
    },
    {
      "inputs": [
        {
          "internalType": "uint256",
          "name": "_fee",
          "type": "uint256"
        }
      ],
      "name": "updateFee",
      "outputs": [],
      "stateMutability": "nonpayable",
      "type": "function"
    },
    {
      "inputs": [],
      "name": "withdraw",
      "outputs": [],
      "stateMutability": "payable",
      "type": "function",
      "payable": true
    },
    {
      "inputs": [],
      "name": "getMintedToken",
      "outputs": [
        {
          "internalType": "uint256",
          "name": "",
          "type": "uint256"
        }
      ],
      "stateMutability": "view",
      "type": "function",
      "constant": true
    },
    {
      "inputs": [
        {
          "internalType": "string",
          "name": "_name",
          "type": "string"
        }
      ],
      "name": "createRandomLip",
      "outputs": [],
      "stateMutability": "payable",
      "type": "function",
      "payable": true
    },
    {
      "inputs": [],
      "name": "getLips",
      "outputs": [
        {
          "components": [
            {
              "internalType": "string",
              "name": "name",
              "type": "string"
            },
            {
              "internalType": "uint256",
              "name": "id",
              "type": "uint256"
            },
            {
              "internalType": "uint256",
              "name": "dna",
              "type": "uint256"
            },
            {
              "internalType": "uint8",
              "name": "level",
              "type": "uint8"
            },
            {
              "internalType": "uint8",
              "name": "rarity",
              "type": "uint8"
            }
          ],
          "internalType": "struct LipToken.Lip[]",
          "name": "",
          "type": "tuple[]"
        }
      ],
      "stateMutability": "view",
      "type": "function",
      "constant": true
    },
    {
      "inputs": [
        {
          "internalType": "address",
          "name": "_to",
          "type": "address"
        }
      ],
      "name": "mintMyNft",
      "outputs": [],
      "stateMutability": "nonpayable",
      "type": "function"
    },
    {
      "inputs": [
        {
          "internalType": "address",
          "name": "_owner",
          "type": "address"
        }
      ],
      "name": "getOwnerLips",
      "outputs": [
        {
          "components": [
            {
              "internalType": "string",
              "name": "name",
              "type": "string"
            },
            {
              "internalType": "uint256",
              "name": "id",
              "type": "uint256"
            },
            {
              "internalType": "uint256",
              "name": "dna",
              "type": "uint256"
            },
            {
              "internalType": "uint8",
              "name": "level",
              "type": "uint8"
            },
            {
              "internalType": "uint8",
              "name": "rarity",
              "type": "uint8"
            }
          ],
          "internalType": "struct LipToken.Lip[]",
          "name": "",
          "type": "tuple[]"
        }
      ],
      "stateMutability": "view",
      "type": "function",
      "constant": true
    },
    {
      "inputs": [
        {
          "internalType": "uint256",
          "name": "_lipId",
          "type": "uint256"
        }
      ],
      "name": "levelUp",
      "outputs": [],
      "stateMutability": "nonpayable",
      "type": "function"
    }
  ],
  "bytecode": "0x6080604052662386f26fc100006008553480156200001c57600080fd5b5060405162002651380380620026518339810160408190526200003f916200023a565b81518290829062000058906000906020850190620000e9565b5080516200006e906001906020840190620000e9565b5050506200008b620000856200009360201b60201c565b62000097565b5050620002f4565b3390565b600680546001600160a01b038381166001600160a01b0319831681179093556040519116919082907f8be0079c531659141344cd1fd0a4f28419497f9722a3daafe3b4186f6b6457e090600090a35050565b828054620000f790620002a1565b90600052602060002090601f0160209004810192826200011b576000855562000166565b82601f106200013657805160ff191683800117855562000166565b8280016001018555821562000166579182015b828111156200016657825182559160200191906001019062000149565b506200017492915062000178565b5090565b5b8082111562000174576000815560010162000179565b600082601f830112620001a0578081fd5b81516001600160401b0380821115620001bd57620001bd620002de565b6040516020601f8401601f1916820181018381118382101715620001e557620001e5620002de565b6040528382528584018101871015620001fc578485fd5b8492505b838310156200021f578583018101518284018201529182019162000200565b838311156200023057848185840101525b5095945050505050565b600080604083850312156200024d578182fd5b82516001600160401b038082111562000264578384fd5b62000272868387016200018f565b9350602085015191508082111562000288578283fd5b5062000297858286016200018f565b9150509250929050565b600281046001821680620002b657607f821691505b60208210811415620002d857634e487b7160e01b600052602260045260246000fd5b50919050565b634e487b7160e01b600052604160045260246000fd5b61234d80620003046000396000f3fe6080604052600436106101665760003560e01c8063698d640c116100d15780639012c4a81161008a578063b88d4fde11610064578063b88d4fde14610401578063c87b56dd14610421578063e985e9c514610441578063f2fde38b1461046157610166565b80639012c4a8146103ac57806395d89b41146103cc578063a22cb465146103e157610166565b8063698d640c1461030d57806370a0823114610320578063715018a61461034057806383b5daf7146103555780638c0b9c54146103775780638da5cb5b1461039757610166565b806323b872dd1161012357806323b872dd146102545780633ccfd60b1461027457806342842e0e1461027c5780635360293e1461029c5780635ec163db146102bc5780636352211e146102ed57610166565b806301ffc9a71461016b57806306fdde03146101a1578063081812fc146101c3578063095ea7b3146101f05780630ce90ec21461021257806311e5aeab14610232575b600080fd5b34801561017757600080fd5b5061018b610186366004611a70565b610481565b6040516101989190611cf1565b60405180910390f35b3480156101ad57600080fd5b506101b66104c9565b6040516101989190611cfc565b3480156101cf57600080fd5b506101e36101de366004611aee565b61055b565b6040516101989190611c05565b3480156101fc57600080fd5b5061021061020b366004611a47565b6105a7565b005b34801561021e57600080fd5b5061021061022d366004611aee565b61063f565b34801561023e57600080fd5b506102476106c4565b60405161019891906121af565b34801561026057600080fd5b5061021061026f366004611959565b61070a565b610210610742565b34801561028857600080fd5b50610210610297366004611959565b6107c7565b3480156102a857600080fd5b506102106102b736600461190d565b6107e2565b3480156102c857600080fd5b506102dc6102d7366004611aee565b610845565b604051610198959493929190611d0f565b3480156102f957600080fd5b506101e3610308366004611aee565b61091b565b61021061031b366004611aa8565b610950565b34801561032c57600080fd5b5061024761033b36600461190d565b6109b4565b34801561034c57600080fd5b506102106109f8565b34801561036157600080fd5b5061036a610a43565b6040516101989190611c56565b34801561038357600080fd5b5061036a61039236600461190d565b610b69565b3480156103a357600080fd5b506101e3610d5b565b3480156103b857600080fd5b506102106103c7366004611aee565b610d6a565b3480156103d857600080fd5b506101b6610dae565b3480156103ed57600080fd5b506102106103fc366004611a0d565b610dbd565b34801561040d57600080fd5b5061021061041c366004611994565b610dcf565b34801561042d57600080fd5b506101b661043c366004611aee565b610e0e565b34801561044d57600080fd5b5061018b61045c366004611927565b610e91565b34801561046d57600080fd5b5061021061047c36600461190d565b610ebf565b60006001600160e01b031982166380ac58cd60e01b14806104b257506001600160e01b03198216635b5e139f60e01b145b806104c157506104c182610f2d565b90505b919050565b6060600080546104d890612235565b80601f016020809104026020016040519081016040528092919081815260200182805461050490612235565b80156105515780601f1061052657610100808354040283529160200191610551565b820191906000526020600020905b81548152906001019060200180831161053457829003601f168201915b5050505050905090565b600061056682610f46565b61058b5760405162461bcd60e51b815260040161058290612004565b60405180910390fd5b506000908152600460205260409020546001600160a01b031690565b60006105b28261091b565b9050806001600160a01b0316836001600160a01b031614156105e65760405162461bcd60e51b81526004016105829061211d565b806001600160a01b03166105f8610f63565b6001600160a01b0316148061061457506106148161045c610f63565b6106305760405162461bcd60e51b815260040161058290611edf565b61063a8383610f67565b505050565b336106498261091b565b6001600160a01b03161461065c57600080fd5b60006009828154811061067f57634e487b7160e01b600052603260045260246000fd5b6000918252602082206003600490920201908101805491935060ff909116916106a78361228b565b91906101000a81548160ff021916908360ff160217905550505050565b60006106ce610f63565b6001600160a01b03166106df610d5b565b6001600160a01b0316146107055760405162461bcd60e51b815260040161058290612050565b504790565b61071b610715610f63565b82610fd5565b6107375760405162461bcd60e51b81526004016105829061215e565b61063a83838361105a565b61074a610f63565b6001600160a01b031661075b610d5b565b6001600160a01b0316146107815760405162461bcd60e51b815260040161058290612050565b600061078b610d5b565b6040519091506001600160a01b038216904780156108fc02916000818181858888f193505050501580156107c3573d6000803e3d6000fd5b5050565b61063a83838360405180602001604052806000815250610dcf565b6107ea610f63565b6001600160a01b03166107fb610d5b565b6001600160a01b0316146108215760405162461bcd60e51b815260040161058290612050565b61082d81600754611187565b6007805490600061083d83612270565b919050555050565b6009818154811061085557600080fd5b906000526020600020906004020160009150905080600001805461087890612235565b80601f01602080910402602001604051908101604052809291908181526020018280546108a490612235565b80156108f15780601f106108c6576101008083540402835291602001916108f1565b820191906000526020600020905b8154815290600101906020018083116108d457829003601f168201915b50505050600183015460028401546003909401549293909290915060ff8082169161010090041685565b6000818152600260205260408120546001600160a01b0316806104c15760405162461bcd60e51b815260040161058290611f86565b600854341461095e346111a1565b6109696008546111a1565b60405160200161097a929190611b61565b604051602081830303815290604052906109a75760405162461bcd60e51b81526004016105829190611cfc565b506109b1816112bc565b50565b60006001600160a01b0382166109dc5760405162461bcd60e51b815260040161058290611f3c565b506001600160a01b031660009081526003602052604090205490565b610a00610f63565b6001600160a01b0316610a11610d5b565b6001600160a01b031614610a375760405162461bcd60e51b815260040161058290612050565b610a416000611411565b565b60606009805480602002602001604051908101604052809291908181526020016000905b82821015610b6057838290600052602060002090600402016040518060a0016040529081600082018054610a9a90612235565b80601f0160208091040260200160405190810160405280929190818152602001828054610ac690612235565b8015610b135780601f10610ae857610100808354040283529160200191610b13565b820191906000526020600020905b815481529060010190602001808311610af657829003601f168201915b50505091835250506001828101546020808401919091526002840154604084015260039093015460ff80821660608501526101009091041660809092019190915291835292019101610a67565b50505050905090565b60606000610b76836109b4565b67ffffffffffffffff811115610b9c57634e487b7160e01b600052604160045260246000fd5b604051908082528060200260200182016040528015610bd557816020015b610bc26117b8565b815260200190600190039081610bba5790505b5090506000805b600954811015610d5257846001600160a01b0316610bf98261091b565b6001600160a01b03161415610d405760098181548110610c2957634e487b7160e01b600052603260045260246000fd5b90600052602060002090600402016040518060a0016040529081600082018054610c5290612235565b80601f0160208091040260200160405190810160405280929190818152602001828054610c7e90612235565b8015610ccb5780601f10610ca057610100808354040283529160200191610ccb565b820191906000526020600020905b815481529060010190602001808311610cae57829003601f168201915b5050509183525050600182015460208201526002820154604082015260039091015460ff8082166060840152610100909104166080909101528351849084908110610d2657634e487b7160e01b600052603260045260246000fd5b60200260200101819052508180610d3c90612270565b9250505b80610d4a81612270565b915050610bdc565b50909392505050565b6006546001600160a01b031690565b610d72610f63565b6001600160a01b0316610d83610d5b565b6001600160a01b031614610da95760405162461bcd60e51b815260040161058290612050565b600855565b6060600180546104d890612235565b6107c3610dc8610f63565b8383611463565b610de0610dda610f63565b83610fd5565b610dfc5760405162461bcd60e51b81526004016105829061215e565b610e0884848484611506565b50505050565b6060610e1982610f46565b610e355760405162461bcd60e51b8152600401610582906120ce565b6000610e3f611539565b90506000815111610e5f5760405180602001604052806000815250610e8a565b80610e69846111a1565b604051602001610e7a929190611b32565b6040516020818303038152906040525b9392505050565b6001600160a01b03918216600090815260056020908152604080832093909416825291909152205460ff1690565b610ec7610f63565b6001600160a01b0316610ed8610d5b565b6001600160a01b031614610efe5760405162461bcd60e51b815260040161058290612050565b6001600160a01b038116610f245760405162461bcd60e51b815260040161058290611d9b565b6109b181611411565b6001600160e01b031981166301ffc9a760e01b14919050565b6000908152600260205260409020546001600160a01b0316151590565b3390565b600081815260046020526040902080546001600160a01b0319166001600160a01b0384169081179091558190610f9c8261091b565b6001600160a01b03167f8c5be1e5ebec7d5bd14f71427d1e84f3dd0314c0f7b2291e5b200ac8c7c3b92560405160405180910390a45050565b6000610fe082610f46565b610ffc5760405162461bcd60e51b815260040161058290611e93565b60006110078361091b565b9050806001600160a01b0316846001600160a01b031614806110425750836001600160a01b03166110378461055b565b6001600160a01b0316145b8061105257506110528185610e91565b949350505050565b826001600160a01b031661106d8261091b565b6001600160a01b0316146110935760405162461bcd60e51b815260040161058290612085565b6001600160a01b0382166110b95760405162461bcd60e51b815260040161058290611e18565b6110c483838361063a565b6110cf600082610f67565b6001600160a01b03831660009081526003602052604081208054600192906110f89084906121f2565b90915550506001600160a01b03821660009081526003602052604081208054600192906111269084906121c6565b909155505060008181526002602052604080822080546001600160a01b0319166001600160a01b0386811691821790925591518493918716917fddf252ad1be2c89b69c2b068fc378daa952ba7f163c4a11628f55a4df523b3ef91a4505050565b6107c382826040518060200160405280600081525061154b565b6060816111c657506040805180820190915260018152600360fc1b60208201526104c4565b8160005b81156111f057806111da81612270565b91506111e99050600a836121de565b91506111ca565b60008167ffffffffffffffff81111561121957634e487b7160e01b600052604160045260246000fd5b6040519080825280601f01601f191660200182016040528015611243576020820181803683370190505b5090505b8415611052576112586001836121f2565b9150611265600a866122ab565b6112709060306121c6565b60f81b81838151811061129357634e487b7160e01b600052603260045260246000fd5b60200101906001600160f81b031916908160001a9053506112b5600a866121de565b9450611247565b60006112c8606461157e565b905060006112dc662386f26fc1000061157e565b6040805160a08101825285815260075460208083019190915291810183905260016060820181905260ff86166080830152600980549182018155600052815180519495509193849360049092027f6e1540171b6c0c960b71a7020d9f60077f6af931a8bbf590da0223dacf75c7af019261135a9284929101906117ed565b50602082015160018201556040820151600282015560608201516003909101805460809093015160ff9081166101000261ff00199190931660ff1990941693909317929092161790556007546113b1903390611187565b336001600160a01b03167f24d2d558f98bdd9d21339e119fc0b03e213c7d05affd838ac2ee136d90e3bbeb600754846040516113ee9291906121b8565b60405180910390a26007805490600061140683612270565b919050555050505050565b600680546001600160a01b038381166001600160a01b0319831681179093556040519116919082907f8be0079c531659141344cd1fd0a4f28419497f9722a3daafe3b4186f6b6457e090600090a35050565b816001600160a01b0316836001600160a01b031614156114955760405162461bcd60e51b815260040161058290611e5c565b6001600160a01b0383811660008181526005602090815260408083209487168084529490915290819020805460ff1916851515179055517f17307eab39ab6107e8899845ad3d59bd9653f200f220920489ca2b5937696c31906114f9908590611cf1565b60405180910390a3505050565b61151184848461105a565b61151d848484846115b8565b610e085760405162461bcd60e51b815260040161058290611d49565b60408051602081019091526000815290565b61155583836116d3565b61156260008484846115b8565b61063a5760405162461bcd60e51b815260040161058290611d49565b6000804233604051602001611594929190611be5565b60408051601f1981840301815291905280516020909101209050610e8a83826122ab565b60006115cc846001600160a01b03166117b2565b156116c857836001600160a01b031663150b7a026115e8610f63565b8786866040518563ffffffff1660e01b815260040161160a9493929190611c19565b602060405180830381600087803b15801561162457600080fd5b505af1925050508015611654575060408051601f3d908101601f1916820190925261165191810190611a8c565b60015b6116ae573d808015611682576040519150601f19603f3d011682016040523d82523d6000602084013e611687565b606091505b5080516116a65760405162461bcd60e51b815260040161058290611d49565b805181602001fd5b6001600160e01b031916630a85bd0160e11b149050611052565b506001949350505050565b6001600160a01b0382166116f95760405162461bcd60e51b815260040161058290611fcf565b61170281610f46565b1561171f5760405162461bcd60e51b815260040161058290611de1565b61172b6000838361063a565b6001600160a01b03821660009081526003602052604081208054600192906117549084906121c6565b909155505060008181526002602052604080822080546001600160a01b0319166001600160a01b03861690811790915590518392907fddf252ad1be2c89b69c2b068fc378daa952ba7f163c4a11628f55a4df523b3ef908290a45050565b3b151590565b6040518060a00160405280606081526020016000815260200160008152602001600060ff168152602001600060ff1681525090565b8280546117f990612235565b90600052602060002090601f01602090048101928261181b5760008555611861565b82601f1061183457805160ff1916838001178555611861565b82800160010185558215611861579182015b82811115611861578251825591602001919060010190611846565b5061186d929150611871565b5090565b5b8082111561186d5760008155600101611872565b600067ffffffffffffffff808411156118a1576118a16122eb565b604051601f8501601f1916810160200182811182821017156118c5576118c56122eb565b6040528481529150818385018610156118dd57600080fd5b8484602083013760006020868301015250509392505050565b80356001600160a01b03811681146104c457600080fd5b60006020828403121561191e578081fd5b610e8a826118f6565b60008060408385031215611939578081fd5b611942836118f6565b9150611950602084016118f6565b90509250929050565b60008060006060848603121561196d578081fd5b611976846118f6565b9250611984602085016118f6565b9150604084013590509250925092565b600080600080608085870312156119a9578081fd5b6119b2856118f6565b93506119c0602086016118f6565b925060408501359150606085013567ffffffffffffffff8111156119e2578182fd5b8501601f810187136119f2578182fd5b611a0187823560208401611886565b91505092959194509250565b60008060408385031215611a1f578182fd5b611a28836118f6565b915060208301358015158114611a3c578182fd5b809150509250929050565b60008060408385031215611a59578182fd5b611a62836118f6565b946020939093013593505050565b600060208284031215611a81578081fd5b8135610e8a81612301565b600060208284031215611a9d578081fd5b8151610e8a81612301565b600060208284031215611ab9578081fd5b813567ffffffffffffffff811115611acf578182fd5b8201601f81018413611adf578182fd5b61105284823560208401611886565b600060208284031215611aff578081fd5b5035919050565b60008151808452611b1e816020860160208601612209565b601f01601f19169290920160200192915050565b60008351611b44818460208801612209565b835190830190611b58818360208801612209565b01949350505050565b60007f54686520666565206973206e6f7420636f72726563742e2000000000000000008252600160fd1b8060188401528451611ba4816019860160208901612209565b80840190508160198201528451611bc281601a840160208901612209565b01601a81019190915265737472696e6760d01b601b820152602101949350505050565b91825260601b6bffffffffffffffffffffffff1916602082015260340190565b6001600160a01b0391909116815260200190565b6001600160a01b0385811682528416602082015260408101839052608060608201819052600090611c4c90830184611b06565b9695505050505050565b60208082528251828201819052600091906040908185019080840286018301878501865b83811015611ce357603f19898403018552815160a08151818652611ca082870182611b06565b838b0151878c0152898401518a88015260608085015160ff9081169189019190915260809485015116939096019290925250509386019390860190600101611c7a565b509098975050505050505050565b901515815260200190565b600060208252610e8a6020830184611b06565b600060a08252611d2260a0830188611b06565b602083019690965250604081019390935260ff918216606084015216608090910152919050565b60208082526032908201527f4552433732313a207472616e7366657220746f206e6f6e20455243373231526560408201527131b2b4bb32b91034b6b83632b6b2b73a32b960711b606082015260800190565b60208082526026908201527f4f776e61626c653a206e6577206f776e657220697320746865207a65726f206160408201526564647265737360d01b606082015260800190565b6020808252601c908201527f4552433732313a20746f6b656e20616c7265616479206d696e74656400000000604082015260600190565b60208082526024908201527f4552433732313a207472616e7366657220746f20746865207a65726f206164646040820152637265737360e01b606082015260800190565b60208082526019908201527f4552433732313a20617070726f766520746f2063616c6c657200000000000000604082015260600190565b6020808252602c908201527f4552433732313a206f70657261746f7220717565727920666f72206e6f6e657860408201526b34b9ba32b73a103a37b5b2b760a11b606082015260800190565b60208082526038908201527f4552433732313a20617070726f76652063616c6c6572206973206e6f74206f7760408201527f6e6572206e6f7220617070726f76656420666f7220616c6c0000000000000000606082015260800190565b6020808252602a908201527f4552433732313a2062616c616e636520717565727920666f7220746865207a65604082015269726f206164647265737360b01b606082015260800190565b60208082526029908201527f4552433732313a206f776e657220717565727920666f72206e6f6e657869737460408201526832b73a103a37b5b2b760b91b606082015260800190565b6020808252818101527f4552433732313a206d696e7420746f20746865207a65726f2061646472657373604082015260600190565b6020808252602c908201527f4552433732313a20617070726f76656420717565727920666f72206e6f6e657860408201526b34b9ba32b73a103a37b5b2b760a11b606082015260800190565b6020808252818101527f4f776e61626c653a2063616c6c6572206973206e6f7420746865206f776e6572604082015260600190565b60208082526029908201527f4552433732313a207472616e73666572206f6620746f6b656e2074686174206960408201526839903737ba1037bbb760b91b606082015260800190565b6020808252602f908201527f4552433732314d657461646174613a2055524920717565727920666f72206e6f60408201526e3732bc34b9ba32b73a103a37b5b2b760891b606082015260800190565b60208082526021908201527f4552433732313a20617070726f76616c20746f2063757272656e74206f776e656040820152603960f91b606082015260800190565b60208082526031908201527f4552433732313a207472616e736665722063616c6c6572206973206e6f74206f6040820152701ddb995c881b9bdc88185c1c1c9bdd9959607a1b606082015260800190565b90815260200190565b918252602082015260400190565b600082198211156121d9576121d96122bf565b500190565b6000826121ed576121ed6122d5565b500490565b600082821015612204576122046122bf565b500390565b60005b8381101561222457818101518382015260200161220c565b83811115610e085750506000910152565b60028104600182168061224957607f821691505b6020821081141561226a57634e487b7160e01b600052602260045260246000fd5b50919050565b6000600019821415612284576122846122bf565b5060010190565b600060ff821660ff8114156122a2576122a26122bf565b60010192915050565b6000826122ba576122ba6122d5565b500690565b634e487b7160e01b600052601160045260246000fd5b634e487b7160e01b600052601260045260246000fd5b634e487b7160e01b600052604160045260246000fd5b6001600160e01b0319811681146109b157600080fdfea2646970667358221220b47ce741c00fc096803598afe2ba30e034b1d2839d52716815e10d47079f8eeb64736f6c63430008000033",
  "immutableReferences": {},
  "source": "// SPDX-License-Identifier: MIT\r\n\r\npragma solidity ^0.8.0;\r\n\r\nimport \"@openzeppelin/contracts/token/ERC721/ERC721.sol\";\r\nimport \"@openzeppelin/contracts/access/Ownable.sol\";\r\nimport \"@openzeppelin/contracts/utils/Strings.sol\";\r\n\r\ncontract LipToken is ERC721, Ownable {\r\n    constructor(string memory _name, string memory _symbol)\r\n        ERC721(_name, _symbol)\r\n    {}\r\n\r\n    uint256 COUNTER;\r\n\r\n    uint256 fee = 0.01 ether;\r\n\r\n    struct Lip {\r\n        string name;\r\n        uint256 id;\r\n        uint256 dna;\r\n        uint8 level;\r\n        uint8 rarity;\r\n    }\r\n\r\n    Lip[] public lips;\r\n\r\n    event NewLip(address indexed owner, uint256 id, uint256 dna);\r\n\r\n    //Helpers\r\n    function _createRandomNum(uint256 _mod) internal view returns (uint256) {\r\n        uint256 randomNum = uint256(\r\n            keccak256(abi.encodePacked(block.timestamp, msg.sender))\r\n        );\r\n        return randomNum % _mod;\r\n    }\r\n\r\n    function updateFee(uint256 _fee) external onlyOwner {\r\n        fee = _fee;\r\n    }\r\n\r\n    //transfer the token to owner's wallet, token is generated by minting\r\n    function withdraw() external payable onlyOwner {\r\n        address payable _owner = payable(owner());\r\n        _owner.transfer(address(this).balance);\r\n    }\r\n\r\n    function getMintedToken() external view onlyOwner returns (uint256) {\r\n        return address(this).balance;\r\n    }\r\n\r\n    //Creation\r\n    function _createLip(string memory _name) internal {\r\n        uint8 randRaririty = uint8(_createRandomNum(100));\r\n        uint256 randDna = _createRandomNum(10**16);\r\n        Lip memory newLip = Lip(_name, COUNTER, randDna, 1, randRaririty);\r\n        lips.push(newLip);\r\n        _safeMint(msg.sender, COUNTER);\r\n        emit NewLip(msg.sender, COUNTER, randDna);\r\n        COUNTER++;\r\n    }\r\n\r\n    function createRandomLip(string memory _name) public payable {\r\n        require(\r\n            msg.value == fee,\r\n            string(\r\n                abi.encodePacked(\r\n                    \"The fee is not correct. \",\r\n                    \" \",\r\n                    Strings.toString(msg.value),\r\n                    \" \",\r\n                    Strings.toString(fee),\r\n                    \" \",\r\n                    \"string\"\r\n                )\r\n            )\r\n        );\r\n        _createLip(_name);\r\n    }\r\n\r\n    //Getters\r\n    function getLips() public view returns (Lip[] memory) {\r\n        return lips;\r\n    }\r\n\r\n    function mintMyNft(address _to) public onlyOwner {\r\n        _safeMint(_to, COUNTER);\r\n        COUNTER++;\r\n    }\r\n\r\n    function getOwnerLips(address _owner) public view returns (Lip[] memory) {\r\n        Lip[] memory result = new Lip[](balanceOf(_owner));\r\n        uint256 counter = 0;\r\n        for (uint256 i = 0; i < lips.length; i++) {\r\n            if (ownerOf(i) == _owner) {\r\n                result[counter] = lips[i];\r\n                counter++;\r\n            }\r\n        }\r\n        return result;\r\n    }\r\n\r\n    // Actions\r\n    function levelUp(uint256 _lipId) public {\r\n        require(ownerOf(_lipId) == msg.sender);\r\n        Lip storage lip = lips[_lipId];\r\n        lip.level++;\r\n    }\r\n}\r\n",
  "sourcePath": "D:\\dev\\nft_game\\contracts\\LipToken.sol",
  "compiler": {
    "name": "solc",
    "version": "0.8.0+commit.c7dfd78e.Emscripten.clang"
  },
  "schemaVersion": "3.4.4",
  "updatedAt": "2022-01-08T16:47:41.210Z",
  "networkType": "ethereum",
  "devdoc": {
    "kind": "dev",
    "methods": {
      "approve(address,uint256)": {
        "details": "See {IERC721-approve}."
      },
      "balanceOf(address)": {
        "details": "See {IERC721-balanceOf}."
      },
      "getApproved(uint256)": {
        "details": "See {IERC721-getApproved}."
      },
      "isApprovedForAll(address,address)": {
        "details": "See {IERC721-isApprovedForAll}."
      },
      "name()": {
        "details": "See {IERC721Metadata-name}."
      },
      "owner()": {
        "details": "Returns the address of the current owner."
      },
      "ownerOf(uint256)": {
        "details": "See {IERC721-ownerOf}."
      },
      "renounceOwnership()": {
        "details": "Leaves the contract without owner. It will not be possible to call `onlyOwner` functions anymore. Can only be called by the current owner. NOTE: Renouncing ownership will leave the contract without an owner, thereby removing any functionality that is only available to the owner."
      },
      "safeTransferFrom(address,address,uint256)": {
        "details": "See {IERC721-safeTransferFrom}."
      },
      "safeTransferFrom(address,address,uint256,bytes)": {
        "details": "See {IERC721-safeTransferFrom}."
      },
      "setApprovalForAll(address,bool)": {
        "details": "See {IERC721-setApprovalForAll}."
      },
      "supportsInterface(bytes4)": {
        "details": "See {IERC165-supportsInterface}."
      },
      "symbol()": {
        "details": "See {IERC721Metadata-symbol}."
      },
      "tokenURI(uint256)": {
        "details": "See {IERC721Metadata-tokenURI}."
      },
      "transferFrom(address,address,uint256)": {
        "details": "See {IERC721-transferFrom}."
      },
      "transferOwnership(address)": {
        "details": "Transfers ownership of the contract to a new account (`newOwner`). Can only be called by the current owner."
      }
    },
    "version": 1
  },
  "userdoc": {
    "kind": "user",
    "methods": {},
    "version": 1
  }
}